{
  "address": "0xa513E6E4b8f2a923D98304ec87F64353C4D5C853",
  "abi": [
    {
      "inputs": [],
      "name": "accountBalance",
      "outputs": [
        {
          "internalType": "uint256",
          "name": "",
          "type": "uint256"
        }
      ],
      "stateMutability": "view",
      "type": "function"
    },
    {
      "inputs": [],
      "name": "accountExists",
      "outputs": [
        {
          "internalType": "bool",
          "name": "",
          "type": "bool"
        }
      ],
      "stateMutability": "view",
      "type": "function"
    },
    {
      "inputs": [],
      "name": "createAccount",
      "outputs": [
        {
          "internalType": "bool",
          "name": "",
          "type": "bool"
        }
      ],
      "stateMutability": "nonpayable",
      "type": "function"
    },
    {
      "inputs": [],
      "name": "deposit",
      "outputs": [],
      "stateMutability": "payable",
      "type": "function"
    },
    {
      "inputs": [
        {
          "internalType": "address",
          "name": "reciever",
          "type": "address"
        },
        {
          "internalType": "uint256",
          "name": "amount",
          "type": "uint256"
        }
      ],
      "name": "transfer",
      "outputs": [],
      "stateMutability": "nonpayable",
      "type": "function"
    },
    {
      "inputs": [
        {
          "internalType": "uint256",
          "name": "withdrawAmount",
          "type": "uint256"
        }
      ],
      "name": "withdraw",
      "outputs": [],
      "stateMutability": "nonpayable",
      "type": "function"
    }
  ],
  "transactionHash": "0x4b3cb271ebba50e1382217ac02961f7aa3a2237f4b53366c7c5da71fe4fd7d48",
  "args": [],
  "numDeployments": 1,
  "solcInputHash": "e8822b64eb4daa91c5cb8de735cdd2ea",
  "bytecode": "0x608060405234801561001057600080fd5b50610c9a806100206000396000f3fe6080604052600436106100555760003560e01c80632e1a7d4d1461005a5780639dca362f14610083578063a9059cbb146100ae578063b0a1c1c4146100d7578063ce4b2ad314610102578063d0e30db01461012d575b600080fd5b34801561006657600080fd5b50610081600480360381019061007c919061089b565b610137565b005b34801561008f57600080fd5b5061009861034f565b6040516100a591906108e3565b60405180910390f35b3480156100ba57600080fd5b506100d560048036038101906100d0919061095c565b610485565b005b3480156100e357600080fd5b506100ec610649565b6040516100f991906109ab565b60405180910390f35b34801561010e57600080fd5b50610117610722565b60405161012491906108e3565b60405180910390f35b610135610776565b005b60011515600160003373ffffffffffffffffffffffffffffffffffffffff1673ffffffffffffffffffffffffffffffffffffffff16815260200190815260200160002060009054906101000a900460ff161515146101ca576040517f08c379a00000000000000000000000000000000000000000000000000000000081526004016101c190610a23565b60405180910390fd5b806000803373ffffffffffffffffffffffffffffffffffffffff1673ffffffffffffffffffffffffffffffffffffffff168152602001908152602001600020541161024a576040517f08c379a000000000000000000000000000000000000000000000000000000000815260040161024190610a8f565b60405180910390fd5b806000803373ffffffffffffffffffffffffffffffffffffffff1673ffffffffffffffffffffffffffffffffffffffff16815260200190815260200160002060008282546102989190610ade565b9250508190555060003373ffffffffffffffffffffffffffffffffffffffff16826040516102c590610b43565b60006040518083038185875af1925050503d8060008114610302576040519150601f19603f3d011682016040523d82523d6000602084013e610307565b606091505b505090508061034b576040517f08c379a000000000000000000000000000000000000000000000000000000000815260040161034290610ba4565b60405180910390fd5b5050565b6000801515600160003373ffffffffffffffffffffffffffffffffffffffff1673ffffffffffffffffffffffffffffffffffffffff16815260200190815260200160002060009054906101000a900460ff161515146103e3576040517f08c379a00000000000000000000000000000000000000000000000000000000081526004016103da90610c10565b60405180910390fd5b60008060003373ffffffffffffffffffffffffffffffffffffffff1673ffffffffffffffffffffffffffffffffffffffff1681526020019081526020016000208190555060018060003373ffffffffffffffffffffffffffffffffffffffff1673ffffffffffffffffffffffffffffffffffffffff16815260200190815260200160002060006101000a81548160ff0219169083151502179055506001905090565b60011515600160003373ffffffffffffffffffffffffffffffffffffffff1673ffffffffffffffffffffffffffffffffffffffff16815260200190815260200160002060009054906101000a900460ff16151514610518576040517f08c379a000000000000000000000000000000000000000000000000000000000815260040161050f90610a23565b60405180910390fd5b806000803373ffffffffffffffffffffffffffffffffffffffff1673ffffffffffffffffffffffffffffffffffffffff1681526020019081526020016000205411610598576040517f08c379a000000000000000000000000000000000000000000000000000000000815260040161058f90610a8f565b60405180910390fd5b60008273ffffffffffffffffffffffffffffffffffffffff16826040516105be90610b43565b60006040518083038185875af1925050503d80600081146105fb576040519150601f19603f3d011682016040523d82523d6000602084013e610600565b606091505b5050905080610644576040517f08c379a000000000000000000000000000000000000000000000000000000000815260040161063b90610ba4565b60405180910390fd5b505050565b600060011515600160003373ffffffffffffffffffffffffffffffffffffffff1673ffffffffffffffffffffffffffffffffffffffff16815260200190815260200160002060009054906101000a900460ff161515146106de576040517f08c379a00000000000000000000000000000000000000000000000000000000081526004016106d590610a23565b60405180910390fd5b6000803373ffffffffffffffffffffffffffffffffffffffff1673ffffffffffffffffffffffffffffffffffffffff16815260200190815260200160002054905090565b6000600160003373ffffffffffffffffffffffffffffffffffffffff1673ffffffffffffffffffffffffffffffffffffffff16815260200190815260200160002060009054906101000a900460ff16905090565b60011515600160003373ffffffffffffffffffffffffffffffffffffffff1673ffffffffffffffffffffffffffffffffffffffff16815260200190815260200160002060009054906101000a900460ff16151514610809576040517f08c379a000000000000000000000000000000000000000000000000000000000815260040161080090610a23565b60405180910390fd5b346000803373ffffffffffffffffffffffffffffffffffffffff1673ffffffffffffffffffffffffffffffffffffffff16815260200190815260200160002060008282546108579190610c30565b92505081905550565b600080fd5b6000819050919050565b61087881610865565b811461088357600080fd5b50565b6000813590506108958161086f565b92915050565b6000602082840312156108b1576108b0610860565b5b60006108bf84828501610886565b91505092915050565b60008115159050919050565b6108dd816108c8565b82525050565b60006020820190506108f860008301846108d4565b92915050565b600073ffffffffffffffffffffffffffffffffffffffff82169050919050565b6000610929826108fe565b9050919050565b6109398161091e565b811461094457600080fd5b50565b60008135905061095681610930565b92915050565b6000806040838503121561097357610972610860565b5b600061098185828601610947565b925050602061099285828601610886565b9150509250929050565b6109a581610865565b82525050565b60006020820190506109c0600083018461099c565b92915050565b600082825260208201905092915050565b7f4163636f756e7420646f65736e74206578697374000000000000000000000000600082015250565b6000610a0d6014836109c6565b9150610a18826109d7565b602082019050919050565b60006020820190508181036000830152610a3c81610a00565b9050919050565b7f496e737566666963656e742046756e6473000000000000000000000000000000600082015250565b6000610a796011836109c6565b9150610a8482610a43565b602082019050919050565b60006020820190508181036000830152610aa881610a6c565b9050919050565b7f4e487b7100000000000000000000000000000000000000000000000000000000600052601160045260246000fd5b6000610ae982610865565b9150610af483610865565b9250828203905081811115610b0c57610b0b610aaf565b5b92915050565b600081905092915050565b50565b6000610b2d600083610b12565b9150610b3882610b1d565b600082019050919050565b6000610b4e82610b20565b9150819050919050565b7f5472616e73666572204661696c65640000000000000000000000000000000000600082015250565b6000610b8e600f836109c6565b9150610b9982610b58565b602082019050919050565b60006020820190508181036000830152610bbd81610b81565b9050919050565b7f4163636f756e7420416c72656164792045786973747300000000000000000000600082015250565b6000610bfa6016836109c6565b9150610c0582610bc4565b602082019050919050565b60006020820190508181036000830152610c2981610bed565b9050919050565b6000610c3b82610865565b9150610c4683610865565b9250828201905080821115610c5e57610c5d610aaf565b5b9291505056fea26469706673582212206dec05a8e1636d79bc3c076790a4e3a284cd2aab3345ba943aafb104eae133e064736f6c63430008110033",
  "devdoc": {
    "kind": "dev",
    "methods": {},
    "version": 1
  },
  "userdoc": {
    "kind": "user",
    "methods": {},
    "version": 1
  },
  "storageLayout": {
    "storage": [
      {
        "astId": 5,
        "contract": "contracts/BankApp.sol:BankApp",
        "label": "userAccount",
        "offset": 0,
        "slot": "0",
        "type": "t_mapping(t_address,t_uint256)"
      },
      {
        "astId": 9,
        "contract": "contracts/BankApp.sol:BankApp",
        "label": "userExists",
        "offset": 0,
        "slot": "1",
        "type": "t_mapping(t_address,t_bool)"
      }
    ],
    "types": {
      "t_address": {
        "encoding": "inplace",
        "label": "address",
        "numberOfBytes": "20"
      },
      "t_bool": {
        "encoding": "inplace",
        "label": "bool",
        "numberOfBytes": "1"
      },
      "t_mapping(t_address,t_bool)": {
        "encoding": "mapping",
        "key": "t_address",
        "label": "mapping(address => bool)",
        "numberOfBytes": "32",
        "value": "t_bool"
      },
      "t_mapping(t_address,t_uint256)": {
        "encoding": "mapping",
        "key": "t_address",
        "label": "mapping(address => uint256)",
        "numberOfBytes": "32",
        "value": "t_uint256"
      },
      "t_uint256": {
        "encoding": "inplace",
        "label": "uint256",
        "numberOfBytes": "32"
      }
    }
  }
}